:020000040800F2
:1000000000000824D9390108111D0108131D010839
:10001000151D0108171D0108191D01080000000029
:10002000000000000000000000000000B15B0008BC
:100030001B1D010800000000415C00080554000879
:10004000293A0108293A0108293A0108293A010800
:10005000293A0108293A0108293A0108293A0108F0
:10006000293A01081D1D0108293A0108293A010809
:10007000293A0108293A0108293A0108293A0108D0
:10008000293A0108293A0108293A0108251D0108E1
:10009000311D0108331D0108371D0108293A0108E7
:1000A000293A0108293A0108293A0108293A0108A0
:1000B000391D0108293A0108293A0108293A01089D
:1000C000293A0108293A0108293A0108293A010880
:1000D000293A0108293A0108293A0108293A010870
:1000E000293A0108293A010800000000293A0108CC
:1000F000293A0108293A0108293A0108293A010850
:10010000293A0108293A0108293A0108293A01083F
:10011000293A0108293A0108293A0108293A01082F
:10012000293A0108293A0108293A0108293A01081F
:10013000293A0108293A0108293A0108293A01080F
:10014000293A0108293A01080000000000000000D7
:10015000293A0108293A0108293A0108293A0108EF
:10016000293A0108293A0108293A0108293A0108DF
:10017000293A0108451D0108293A0108293A0108D0
:10018000293A0108293A0108293A0108293A0108BF
:10019000293A0108293A0108293A0108293A0108AF
:1001A000511D0108293A01083D2A0008293A010891
:1001B000293A0108293A0108293A0108293A01088F
:1001C000293A0108293A0108293A0108293A01087F
:1001D000293A0108293A0108293A0108293A01086F
:1001E000293A0108293A0108293A0108293A01085F
:1001F000293A0108293A0108293A0108293A01084F
:10020000293A0108293A0108293A0108293A01083E
:10021000293A0108293A0108293A0108293A01082E
:10022000293A01085D1D0108691D0108293A0108E4
:10023000293A0108293A0108293A0108293A01080E
:10024000293A0108293A0108293A0108293A0108FE
:10025000293A0108293A0108293A0108293A0108EE
:10026000293A0108293A0108293A0108293A0108DE
:10027000293A0108293A0108293A0108293A0108CE
:10028000293A0108293A0108293A0108000000002A
:08029000293A0108293A01088E
:1002C00002780B78012A28BF9A4240F0D8806DE965
:1002D000044540EA0104CDE902676FF0000C4FEAE3
:1002E00044721AB380EA010414F0070F6BD100F0D6
:1002F000070420F0070004F0030521F007014FEA8E
:10030000C505F0E8042314F0040FF1E804670CFAC3
:1003100005F462EA040266EA04060BD063EA040309
:10032000624667EA0407664604E000BFF0E804237B
:10033000F1E8046782FA4CF582EA0604A4FA8CF428
:100340006CBB83FA4CF583EA0705A5FA8CF595B9E1
:1003500050E9022351E9026782FA4CF582EA060469
:10036000A4FA8CF483FA4CF583EA0705A5FA8CF518
:100370002543DBD09CB92DBAB5FA85F424F00704E7
:1003800027FA04F1DDE9026723FA04F303F0FF0022
:1003900001F0FF01FDE80445A0EB0100704724BA1D
:1003A000B4FA84F424F0070426FA04F1DDE90267C4
:1003B00022FA04F202F0FF0001F0FF01FDE804451B
:1003C000A0EB0100704714F0030F3CD110F00304C0
:1003D00028D150F8082B51F8083B82FA4CF582EAF4
:1003E0000305A5FA8CF55DB950F8042C51F8043CCE
:1003F00082FA4CF582EA0305A5FA8CF5002DE8D0C7
:100400002DBAB5FA85F424F0070423FA04F122FA90
:1004100004F202F0FF0001F0FF01FDE80445A0EB4B
:10042000010070474FEAC40420F0030050F8082B85
:1004300021F0030151F8083B0CFA04F462EA0402CB
:1004400063EA0403C9E710F003041DD0A1EB040123
:1004500020F00300E40750F8042B06D012D28B786A
:100460005FFAA2F4E41A06D12BB1CB785FFAB2F4AA
:10047000E41A00D133B920465DF8104B7047A2EB67
:100480000300704701F1040150F8042BCC0721F060
:10049000030151F8043B48D824D222F07F4482FA69
:1004A0004CF594EA1325A5FA8CF50AD165B951F8F3
:1004B000043B84EA0204B4EB036F0ED150F8042B22
:1004C000EBE74FEA132355E035F07F454DD108782F
:1004D000FDE80445C0F1000070474FEA126203F0E6
:1004E000FF0347E002EA1C4482FA4CF594EA134504
:1004F000A5FA8CF50AD165B951F8043B84EA0204E7
:10050000B4EB034F0CD150F8042BEBE74FEA134345
:1005100030E015EA1C4528D10B884FEA124229E049
:100520004FEA124203EA1C4324E002F0FF0482FA7D
:100530004CF594EA1365A5FA8CF50AD165B951F822
:10054000043B84EA0204B4EB032F09D150F8042BD6
:10055000EBE74FEA13630DE015F0FF0F05D10B68D1
:100560004FEA122223F07F4304E04FF00000FDE841
:100570000445704712BA1BBA82FA4CF482EA0304AB
:10058000A4FA8CF5B5FA85F402FA04F203FA04F33E
:100590004FEA1260FDE80445A0EB1360704700BF0E
:1005A00001F0FF01102A2BDB10F0070F08D010F824
:1005B000013B013A8B422DD010F0070F42B3F6D128
:1005C000F0B441EA012141EA014122F007047FF041
:1005D00000070023F0E80256083C85EA010586EA98
:1005E000010685FA47F5A3FA87F586FA47F6A5FAD4
:1005F00087F68EB9EED1F0BC01F0FF0102F00702E0
:1006000032B110F8013B013A83EA010313B1F8D18A
:100610000020704701387047002D06BF354603386B
:10062000073815F0010F07D1013015F4807F02BFA4
:10063000013015F4C03F0130F0BC0138704700BFF5
:10064000844641EA000313F003036DD1403A41D3DD
:1006500051F8043B40F8043B51F8043B40F8043B9C
:1006600051F8043B40F8043B51F8043B40F8043B8C
:1006700051F8043B40F8043B51F8043B40F8043B7C
:1006800051F8043B40F8043B51F8043B40F8043B6C
:1006900051F8043B40F8043B51F8043B40F8043B5C
:1006A00051F8043B40F8043B51F8043B40F8043B4C
:1006B00051F8043B40F8043B51F8043B40F8043B3C
:1006C00051F8043B40F8043B51F8043B40F8043B2C
:1006D000403ABDD2303211D351F8043B40F8043BCC
:1006E00051F8043B40F8043B51F8043B40F8043B0C
:1006F00051F8043B40F8043B103AEDD20C3205D3DC
:1007000051F8043B40F8043B043AF9D2043208D0D3
:10071000D2071CBF11F8013B00F8013B01D30B8845
:1007200003806046704700BF082A13D38B078DD023
:1007300010F003038AD0C3F10403D21ADB071CBFF5
:1007400011F8013B00F8013B80D331F8023B20F85F
:10075000023B7BE7043AD9D3013A11F8013B00F898
:10076000013BF9D20B7803704B7843708B78837020
:10077000604670470000000000000000000000001C
:1007800030B490F800F020F007016FF0000C10F08A
:10079000070491F820F040F048804FF000046FF01B
:1007A0000700D1E9002391F840F000F1080082FA37
:1007B0004CF2A4FA8CF283FA4CF3A2FA8CF34BBB02
:1007C000D1E9022382FA4CF200F10800A4FA8CF27B
:1007D00083FA4CF3A2FA8CF3E3B9D1E9042382FA49
:1007E0004CF200F10800A4FA8CF283FA4CF3A2FA5E
:1007F0008CF37BB9D1E9062301F1200182FA4CF296
:1008000000F10800A4FA8CF283FA4CF3A2FA8CF3FC
:10081000002BC6D0002A04BF04301A4612BAB2FA1E
:1008200082F200EBD20030BC7047D1E9002304F023
:100830000305C4F100004FEAC50514F0040F91F858
:1008400040F00CFA05F562EA05021CBF63EA0503F5
:1008500062464FF00004AAE781F0004102E000BFC9
:1008600083F0004330B54FEA41044FEA430594EA70
:10087000050F08BF90EA020F1FBF54EA000C55EAAB
:10088000020C7FEA645C7FEA655C00F0E2804FEA7C
:100890005454D4EB5555B8BF6D420CDD2C4480EA5E
:1008A000020281EA030382EA000083EA010180EA8E
:1008B000020281EA0303362D88BF30BD11F0004FDC
:1008C0004FEA01314FF4801C4CEA113102D0404212
:1008D00061EB410113F0004F4FEA03334CEA13334D
:1008E00002D0524263EB430394EA050F00F0A78065
:1008F000A4F10104D5F1200E0DDB02FA0EFC22FA60
:1009000005F2801841F1000103FA0EF2801843FA53
:1009100005F359410EE0A5F120050EF1200E012A44
:1009200003FA0EFC28BF4CF0020C43FA05F3C01882
:1009300051EBE37101F0004507D54FF0000EDCF1FB
:10094000000C7EEB00006EEB0101B1F5801F1BD3A4
:10095000B1F5001F0CD349085FEA30004FEA3C0CA8
:1009600004F101044FEA445212F5800F80F09A809E
:10097000BCF1004F08BF5FEA500C50F1000041EBA2
:10098000045141EA050130BD5FEA4C0C404141EBA6
:100990000101013C28BFB1F5801FE9D291F0000FA1
:1009A00004BF01460020B1FA81F308BF2033A3F150
:1009B0000B03B3F120020CDA0C3208DD02F1140C47
:1009C000C2F10C0201FA0CF021FA02F10CE002F182
:1009D0001402D8BFC2F1200C01FA02F120FA0CFC7B
:1009E000DCBF41EA0C019040E41AA2BF01EB0451C4
:1009F000294330BD6FEA04041F3C1CDA0C340EDCC2
:100A000004F11404C4F1200220FA04F001FA02F304
:100A100040EA030021FA04F345EA030130BDC4F1C2
:100A20000C04C4F1200220FA02F001FA04F340EAB7
:100A30000300294630BD21FA04F0294630BD94F068
:100A4000000F83F4801306BF81F480110134013D4F
:100A50004EE77FEA645C18BF7FEA655C29D094EAC0
:100A6000050F08BF90EA020F05D054EA000C04BF3E
:100A70001946104630BD91EA030F1EBF0021002029
:100A800030BD5FEA545C05D14000494128BF41F0C8
:100A9000004130BD14F580043CBF01F5801130BD2C
:100AA00001F0004545F0FE4141F470014FF00000B7
:100AB00030BD7FEA645C1ABF194610467FEA655C68
:100AC0001CBF0B46024650EA013406BF52EA03350A
:100AD00091EA030F41F4002130BD00BF90F0000FF8
:100AE00004BF0021704730B54FF4806404F1320434
:100AF0004FF000054FF0000150E700BF90F0000FED
:100B000004BF0021704730B54FF4806404F1320413
:100B100010F0004548BF40424FF000013EE700BFE3
:100B200042004FEAE2014FEA31014FEA02701FBF73
:100B300012F07F4393F07F4F81F06051704732F0A5
:100B40007F4208BF704793F07F4F04BF41F40021FC
:100B5000704730B54FF4607401F0004521F000415A
:100B60001CE700BF50EA010208BF704730B54FF0E4
:100B700000050AE050EA010208BF704730B511F0E5
:100B8000004502D5404261EB41014FF4806404F11D
:100B900032045FEA915C3FF4D8AE4FF003025FEAA3
:100BA000DC0C18BF03325FEADC0C18BF033202EB27
:100BB000DC02C2F1200300FA03FC20FA02F001FA81
:100BC00003FE40EA0E0021FA02F11444BDE600BF24
:100BD00053B94AB9002908BF00281CBF4FF0FF31A4
:100BE0004FF0FF3000F0E2B8ADF1080C6DE904CE33
:100BF00038F022FEDDF804E0DDE9022304B070479E
:100C000000F1340191E838009C46A6464CF8045D9A
:100C100090E8FF0FE54600BD90EC210B704700BF48
:100C200080EC210B704700BF90EC200B704700BF99
:100C300080EC200B704700BFD0EC200B704700BF4A
:100C4000C0EC200B704700BFF0EC0201F0EC021189
:100C5000F0EC0221F0EC0231F0EC0241F0EC025138
:100C6000F0EC0261F0EC0271F0EC0281F0EC029128
:100C7000F0EC02A1F0EC02B1F0EC02C1F0EC02D118
:100C8000F0EC02E1F0EC02F1704700BFE0EC020191
:100C9000E0EC0211E0EC0221E0EC0231E0EC024178
:100CA000E0EC0251E0EC0261E0EC0271E0EC028168
:100CB000E0EC0291E0EC02A1E0EC02B1E0EC02C158
:100CC000E0EC02D1E0EC02E1E0EC02F1704700BFA1
:100CD000B0FC0181B0FC0191B0FC01A1B0FC01B1FC
:100CE000704700BFA0FC0181A0FC0191A0FC01A104
:100CF000A0FC01B1704700BFEC4600B52DE90050E3
:100D00002DE9FF1F4FF000032DE90C0001A939F078
:100D10004DF8DDF840E012B0704700BFEC4600B57A
:100D20002DE900502DE9FF1F4FF000032DE90C00C5
:100D300001A939F077F8DDF840E012B0704700BF44
:100D4000EC4600B52DE900502DE9FF1F4FF00003E0
:100D50002DE90C0001A939F087F8DDF840E012B068
:100D6000704700BFEC4600B52DE900502DE9FF1F8C
:100D70004FF000032DE90C0001AB39F04BF8DDF822
:100D800040E012B0704700BFEC4600B52DE90050BE
:100D90002DE9FF1F4FF000032DE90C0001AA39F0E7
:100DA000C3F8DDF840E012B0704700BF704700BFE5
:100DB0000348044B834202D0034B03B118477047EA
:100DC000C0070024C0070024000000000548064BAF
:100DD0001B1AD90F01EBA301491002D0034B03B139
:100DE00018477047C0070024C00700240000000017
:100DF00010B5064C237843B9FFF7DAFF044B13B163
:100E00000448AFF300800123237010BDC08100248B
:100E100000000000A4A9030808B5054B1BB1054953
:100E20000548AFF30080BDE80840FFF7CFBF00BF23
:100E300000000000C4810024A4A9030870470438FE
:100E400070477047C0680368DB6A1847A0F1040068
:100E5000FFF7F8BF10B5044610212AF0E9FC204640
:100E600010BDA0F10400F5E70022C1608260024AD3
:100E700002601C324260704754AA030870477047F2
:100E800070470000034B10B50446036000F0A8FC57
:100E9000204610BD60C6030810B50446FFF7F2FFF8
:100EA0004FF4036120462AF0C3FC204610BD000029
:100EB00010B5044600F0F4F9014B2046236010BD44
:100EC00060C6030800F013B9D0F820383C22013383
:100ED00093FBF2F110B4C0F8203802FB113333BB9E
:100EE000D0F82C48D0F828180134D0F824283B2C0E
:100EF000C0F82C4806DD0131C0F82C383B290DDC48
:100F0000C0F8281890F82C3800F5F87090F83826BA
:100F100090F834165DF8044B13F054B90132C0F860
:100F20002838172AD8BF1346C0F82438EAE75DF8F6
:100F3000044B704710B504460B46064A0A2100F6DA
:100F40000C001CF0AAF804F5DD60BDE8104019F0B3
:100F5000E1BF00BF7CAA030810B504460B46064A51
:100F60000A2100F60C001CF098F804F5DD60BDE8DD
:100F7000104019F0CFBF00BF7CAA03080022026016
:100F8000704713B5044601A80EF09EFE20B12068FC
:100F9000019903689B68984702B010BD704700F53F
:100FA00098730868496803C37047704700F05ABDDA
:100FB00010B504464FF4AE712AF03AFC204610BD3D
:100FC00010B50446D0F85801FFF7DBFF2046BDE816
:100FD000104018F087BE10B50446D0F8400158B153
:100FE0000368DB68984738B1D4F8400103689B6810
:100FF00098470023C4F8403110BD000010B50446E6
:1010000000F0FCFC014B2046236010BD9CC6030889
:101010000020704781807047C18070470181704710
:10102000418170477047704770477047704710B4F0
:10103000C4880368121B84885B6D091B12B25DF8BB
:10104000044B09B218474FF6FF7383814FF0FF330B
:1010500003621368C3611060704770477047704740
:10106000704730B585B00368044601816D4601467E
:10107000D3F884303C342846984795E8070084E844
:10108000070005B030BD30B585B003680446418126
:101090006D460146D3F884303C342846984795E89D
:1010A000070084E8070005B030BD002202804280BE
:1010B0008280C280704780F836107047036870B530
:1010C00004461B6B154698472368204629465B6EED
:1010D000BDE8704018470020704700224FF0FF31F4
:1010E0008260C0E900217047806C7047704770478C
:1010F00010B5044608212AF09BFB204610BD10B510
:1011000004464C212AF094FB204610BD90F825207F
:1011100012B103685B691847704708B5FFF7F6FF1F
:1011200008BD90F825201AB190F8242002B118606B
:1011300070470000036870B55E6B0446114B8DB2BA
:101140001B682BB9104B6C21104A114832F0E8F89B
:101150001049828D0988914203D80F4B6D210B4AAB
:10116000F3E713F812200D4B1B6853F822000368B5
:101170001B6B9847291A3346204609B2BDE87040D8
:10118000184700BF0CBF02247FAA0308C1AA0308A6
:10119000FCAA030800BF022441AB030804BF0224D9
:1011A000036870B504461B6B1546984723682046B4
:1011B00029465B6BBDE87040184770B504461D4674
:1011C000BDF91060FFF7ECFF2368294620469B6BB2
:1011D0009847236831462046DB6BBDE870401847CE
:1011E0004FF4807100228184054982620160C0E968
:1011F0000122C0E90322C0E90522C0E907227047A5
:1012000038D203080022C0E90122C0E90322C0E964
:101210000522C0E907224FF480728284014A0260ED
:10122000704700BFF0C6030838B504460D462622B5
:10123000002134F0DBFB2046FFF7E4FF064B20469D
:10124000294623602B88E384FF2384F8283016F096
:10125000F0FD204638BD00BF88DA030810B504460B
:101260002622002134F0C2FB2046FFF7CBFF0A4BB9
:101270004FF47F0220462360084BA3624FF6FF73B2
:10128000A3850023C4E90C324FF0FF322387E363C8
:10129000C4E9102310BD00BF0CD9030858C70308C8
:1012A0002DE9F04F04469BB000251AF0E9F8A2465C
:1012B000D94B26222946E56304F16C074AF8403BE6
:1012C000504634F093FB5046FFF79CFFD34B384613
:1012D000A5662364FF234FF6FF7604F5F87984F8BA
:1012E000663004F24C5B13F0FBFB04F5B2734FF075
:1012F00001081846059313F0A3FA04F5E27318A940
:10130000ADF8606018460A93FFF78EFF484612F06A
:10131000F1FE04F5A46318A9ADF8606018460B93BC
:10132000FFF782FF5846FFF75BFF04F5AF6318A98C
:10133000ADF8606018460C93FFF776FF04F2A453F3
:1013400018460693FFF78AFF04F2EC5318A9ADF88C
:10135000606018460D93FFF767FF04F5C36318A993
:10136000ADF8606018460E93FFF75EFF04F2446329
:1013700018A9ADF8606018460F93FFF755FF04F504
:10138000CE6318A9ADF8606018460393FFF74CFFD1
:10139000A34B18A9C4F89C56C4F870364FF0FF331D
:1013A000C4F8A486C4F8A03604F2AC6384F8A85646
:1013B00004934FF0FF330498ADF86030FFF734FF2B
:1013C000974BC4F8D856C4F8AC364FF0FF33C4F886
:1013D000E086C4F8DC3604F5DD6384F8E45618468C
:1013E0001193FFF73BFF8F4BC4F83057C4F8E83632
:1013F00004F2347318460793FFF7F2FE04F5EC632A
:1014000018A9ADF8606018461093FFF70DFF04F2BD
:101410008C7318460893FFF721FF04F2D473294612
:1014200026221846099334F0E1FA0998FFF7EAFEFC
:101430007D4BA4F802682A46C4F8D4374FF44873A9
:10144000A4F80468294684F806685046A4F8086899
:101450004FF07F46C4F8FC5784F8005884F8F887AA
:1014600000934FF4A063FFF7A8FE5146201DA66627
:1014700012F000FF2A4629463846FFF791FE07235F
:1014800018AA17A9ADF85C30082338464FF0020AB5
:10149000ADF8603013F0C1FB40F2EE22384640F266
:1014A000622113F070FA3846322113F002FA3846FE
:1014B000322113F066FA5D4B64220A98C4F86C314D
:1014C0008021FFF76DFE18A90A98ADF860A016F00C
:1014D000B0FC0A99059812F0CDFE48464FF4A4726C
:1014E0004FF40271FFF75CFE7823484603211A4649
:1014F00012F050FC524648466423062112F0E5FAE9
:1015000057230A224846052112F0D3FA29464846B5
:1015100012F093FB452309224846042112F0BCFA3D
:101520002946484612F06FFB0A222B4648461146D0
:1015300012F0D7FA3E4A2946484612F038FB49468F
:1015400005980DF1480912F095FEB4220B984FF45E
:10155000A071FFF725FE0B2318A90B98ADF860309A
:1015600016F067FC0B99059812F084FE0599384631
:1015700013F0C4FB2D4B64220C98C4F85435802121
:10158000FFF70EFE18A90C98ADF8608016F051FC1C
:101590000C99584612F06EFEAE2206984FF4FD717B
:1015A000FFF7FEFD06994846C4F8D465A4F8D8555F
:1015B00015F052FE04F5BC6399E8070083E80700C4
:1015C0001C4A18A906981892ADF864A016F00AF9FA
:1015D0000699584612F04EFE94220D984FF4AF71C2
:1015E000FFF7DEFD122318A90D98ADF8603016F054
:1015F00020FC0D99584612F03DFE4FF481720E9872
:1016000040F27D21FFF7CCFD0C2318A90E98ADF810
:10161000603016F00EFC0FE0F8C703089CD90308F1
:1016200090D8030868C703081CD8030800052003E6
:10163000C5B7010858C703080E99584612F01AFE9C
:1016400040F2E1120F984FF40771FFF7A9FD112343
:1016500018A90F98ADF8603016F0EBFB0F995846BB
:1016600012F008FE03984FF481724FF4C871FFF72F
:1016700097FD0E2203980D2115F0F2FC03983C21F2
:1016800015F000FD434642464146039815F04CFCD8
:101690000399584612F0EEFD04984FF4817240F21F
:1016A0001231FFF77DFD102204980F2115F0D8FCB0
:1016B00004983C2115F0E6FC43464246294604982E
:1016C00015F032FC0499584612F0D4FD18231198F5
:1016D0007C22009340F22E21A523FFF76EFD04F635
:1016E0000C034FF0FF313C4AC4F830371198C4F86E
:1016F000281718A9C4F81867A4F81C57C4F8245769
:10170000C4F82C57A4F80C581892ADF8645016F091
:1017100069F81199584612F0ADFD5946384613F054
:10172000EDFA2E4B64221098C4F83C378021FFF765
:1017300037FD18A91098ADF8605016F07AFB109993
:10174000079812F097FD40F2D11208984FF40971F2
:10175000FFF726FD08994846C4F8BC67A4F8C057AF
:1017600015F07AFD04F5F96399E8070083E80700AE
:10177000194A18A908981892ADF8648016F032F842
:10178000DDE9070112F076FD09984FF4B97240F2D5
:101790002D21FFF705FD092318AA17A9ADF85C3024
:1017A0000A230998A4F80838ADF8603016F033FA27
:1017B0000999079812F05EFD0799384613F09EFAD2
:1017C0004146384613F08BFA201D394612F052FD7F
:1017D00020461BB0BDE8F08F58C703080005200362
:1017E000044B10B5044640F86C3B13F06BF82046F0
:1017F00010BD00BFF8C7030810B50446FFF7F0FF9F
:101800004FF4026120462AF013F8204610BD7047BD
:1018100070477047416070477047704701230372FB
:101820007047704710B441680346C2689B68541003
:1018300001EB6200D20748BF0A595DF8044B48BF6C
:10184000D35818470346406830B19A681AB9D86827
:1018500000F0010070470120704710B504460C21CC
:1018600029F0E6FF204610BD10B50446102129F0EE
:10187000DFFF204610BD10B504464FF4AE7129F0CD
:10188000D7FF204610BD10B518F08AF90368BDE8EF
:101890001040DB6B184700002DE9F14FD0E9556A85
:1018A0000746B06803681B6A9847B0F5036F05D216
:1018B000444BA321444A454831F032FD7068036827
:1018C0001B6A98470F2803D8414BA4213E4AF2E7F0
:1018D000F06803681B6A98470B2803D83D4BA52185
:1018E000394AE8E7DFF8F49018F05AF9043018F0B4
:1018F00097F9D9F8000010B10368DB689847D9F868
:10190000000010B103681B689847DFF8D480D8F84E
:10191000000010B103685B699847D7F83C0110B12B
:1019200003685B689847D8F8000010B103681B682B
:101930009847D7F83C0110B103689B689847F06856
:1019400000214FF0000B03685B6A9847224B044666
:10195000C0F804B080F808B059460360B068036866
:101960005B6A98470546FFF7A3FA70685946036813
:101970005B6A984706462946FFF776FA331DC7F893
:101980003C612846C9F80040C8F80050CAF8003049
:101990002B68C6F808A0DB68EE63984733683046CA
:1019A0001B6898472146284619F005FF2368204602
:1019B0001B699847236820465B6901B0BDE8F04F7A
:1019C000184700BF7FAB03080DAC0308DFAC03086A
:1019D00024AD0308C7AD030898C80308F4BE022469
:1019E000F8BE0224044B1B6893F85C200AB1186D02
:1019F00000B99868704700BFB4BE0224F8B5174616
:101A000004460E4618F0E2F9124B00251C602946E8
:101A1000114B2360114BC4E95135114B1868C4E9CF
:101A200053550368C4E94F559B68C4E955769847F8
:101A3000284600F019FAFFF7D5FF22F00EFDFFF758
:101A4000D1FF22F085FDFFF7CDFF22F08DFD20466E
:101A5000F8BD00BFFCBE022444C803082CC803081C
:101A6000B4BE0224064BC0F84801C0F84C31002334
:101A7000C0F8503100F5A273C0F84031704700BF84
:101A80009918000813B5002451B1036801AA019404
:101A90008DF803409C680DF10303A04702B010BD10
:101AA0000846FBE7C0897047008A7047C0887047C6
:101AB00080887047807A00F07F007047807AC00984
:101AC00070470020704700009FED010A704700BF7B
:101AD00000000000406A7047806A704770470B88BA
:101AE0008A889BB2D20A10B54C88C16943EA044384
:101AF00051F82200184410BD10B50446BAB1107B4D
:101B000068B1537BD27A1B0203F4E0631A43236A61
:101B100003EB82031A888A4202D193F9020010BDB6
:101B200005D80138043380B20028F3D1F7E700204C
:101B3000F5E710B504462C2129F07AFE204610BDA9
:101B400030B58BB00446BDF860500895BDF85C50C8
:101B500007959DF8505006959DF84C5005959DF8B9
:101B6000485004959DF8445003959DF840500295C7
:101B70009DF83C500195BDF83850009519F072FA67
:101B8000064B20462360159BE361169B2362199B3D
:101B900063621A9BA3620BB030BD00BFBCC80308D0
:101BA0007047000030B5164D8FB02C68BFF35B8FC7
:101BB00014F0010420D1284629F03CFEE0B13F2377
:101BC000012210490993104B10480893104B0A94B6
:101BD0000194CDE906430423CDE902430A23CDE96C
:101BE0000B440093CDE90444FFF7AAFF094831F004
:101BF000B7FB284629F03AFE04480FB030BD00BFBD
:101C0000DC810024100F0408A0110408E0810024E6
:101C10009C110408A11B00087047000030B5174D47
:101C20008FB02C68BFF35B8F14F0010422D12846DB
:101C300029F000FEF0B13F230D2211490993114B09
:101C400011480893114B0A940793012304940194BB
:101C5000CDE905430423CDE902432823CDE90B4414
:101C600000932923FFF76CFF094831F079FB2846E0
:101C700029F0FCFD04480FB030BD00BF0C820024E9
:101C8000340F04088411040810820024CC110408C5
:101C9000191C00087047000030B5174D8FB02C6834
:101CA000BFF35B8F14F0010422D1284629F0C2FD56
:101CB000F0B12A231D2211490993114B11480893B1
:101CC000114B0A940793012304940194CDE9053341
:101CD0000423CDE902431423CDE90B4400931823D8
:101CE000FFF72EFF094831F03BFB284629F0BEFDE7
:101CF00004480FB030BD00BF3C820024EC0F040844
:101D0000A411040840820024D0110408951C000886
:101D1000704710B50446042129F08AFD204610BD05
:101D2000012908B506D0022908D059B900F014F8E5
:101D3000006808BD00F010F84068FAE700F00CF801
:101D40008068F6E70020F4E70048704730C90308D0
:101D50001320704703207047004870476C820024AE
:101D600010B5054CFFF798FF2060FFF757FF606044
:101D7000FFF718FFA06010BD6C82002400207047A0
:101D8000002070470EB403B503AB002153F8042BB9
:101D9000019318F097FF02B05DF804EB03B07047B1
:101DA0000CB407B504AB53F8042B019318F08AFF69
:101DB00003B05DF804EB02B070470000436C10B54F
:101DC000044673B3038F2BB9184BC521184A194821
:101DD00031F0A6FAC38E00EB43035B8C0BB31AF011
:101DE0009EFA238F012B03D8134BCB21134AEEE726
:101DF000E28E40F63F10531C9BB2092B194688BF58
:101E0000A3F10A0104EB4101498C814209D10A2B5B
:101E100004EB420228BF0023508C04EB4303588498
:101E200051842046BDE810401AF07DB96AAE03081F
:101E300073AE03081EAF030866AF030874AF030850
:101E40001AF039B910B586B002AC84E806001A461B
:101E50000AAB214605930193099B0093089B17F059
:101E600013FA06B010BD000038B518BB124B13486A
:101E70001C681349B4B1226822440260626822449B
:101E80000A60A26814440F4B00221A80FFF764FF17
:101E90000546FFF75FFF0C4B1C600C4B1D600C4BA5
:101EA000188007E00B4B03600B4B0B600B4B1C685F
:101EB000002CE8D138BD00BF848200247C8200243D
:101EC00078820024808200240CBF022404BF0224F4
:101ED00000BF0224D411040834120408ACCA030859
:101EE000044B1B6853F82100034B1B6803EB4000B5
:101EF000704700BF788200247C820024012380F890
:101F00007C1080F87D3070477047002070470000DB
:101F100081640039024B18BF01211970704700BF5E
:101F2000A7BE0224704700207047C36B0BB1084660
:101F3000184770474FF6FF707047406803689B6909
:101F40001847704770470000034B902283F85A23CC
:101F500083F85823704700BF00E100E0094A0A49AE
:101F6000D3680A48C3F30A03013B9BB20B80116993
:101F7000C1F30A01013901801364536B43F001037B
:101F800053637047001000508A8200248882002426
:101F9000014BD3F8AC00704700100050024B0122F7
:101FA000C3F8AC105A627047001000500163C0E9DA
:101FB0000D217047704700EB8100114640680368AF
:101FC000DB68184780F83C107047000038B50446BD
:101FD00013F099F923689D6E17F0E2FD0146204643
:101FE000A8472368094A4FF05041D3F88C50204647
:101FF0000023A8476368064A5364064B5A60064AA2
:102000001A639A634FF416225A6338BD00E02ED04B
:10201000D48200248C82002400C05DD013F05AB911
:1020200038B504460D46406C4FF0FF3103F0C3FA5B
:10203000606C03F0E3FA242303FB0545002385F8D5
:10204000283094F828300BB9236BA36338BD13F004
:102050000AB913F088BA10B5044613F01BFF2368C1
:102060002046D3F8BC30BDE81040184710B50446F0
:1020700013F03AFA60680368BDE810401B6918471E
:1020800010B50446482129F0D3FB204610BD0000BE
:1020900090F838100D4B10B590F87C401A788C42AF
:1020A00009D03AB90A490B4A0888148810800122DD
:1020B0000C801A7010BD002AFCD0064A044914880E
:1020C00008880C8010800022F3E700BFA6BE02241F
:1020D000AEBE0224B0BE0224124A5369DB0370B5BF
:1020E0001ED50023C2F88430BFF34F8FD2F8803062
:1020F00043F6E074C3F3C900C3F34E335B0103EA54
:102100000406014646EA81750139C2F87452F9D2D3
:10211000203B13F1200FF2D1BFF34F8FBFF36F8F2E
:1021200070BD00BF00ED00E008B5094B1B888B4275
:1021300003D8084B1B88934205D9074BA521074AB2
:10214000074831F0EDF8074B1980074B1A8008BD9E
:10215000B0BE0224AEBE022446B00308A9B00308F4
:10216000ECB00308ACBE0224AABE022408B531B10B
:10217000044B4FF4B871044A044831F0D1F890F898
:10218000290008BD2FB1030843B10308CDB20308ED
:1021900010B531B1064B4FF4B571064A064831F01F
:1021A000BFF8406811460368BDE810401B6B184734
:1021B0002FB103080EB30308CDB2030808B529B147
:1021C000034B7921034A044831F0AAF8C06808BDDE
:1021D0002FB10308BCB40308CDB2030810B5044600
:1021E00029B1194BA221194A194831F099F8052A49
:1021F00015D8DFE802F0031115171C2240680368A8
:102200001B69984758B1012384F8293084F82C3091
:102210000023C4E9043302E0002380F8293010BD14
:102220000362F5E70362012380F82A30F0E7002318
:1022300080F8293001230362F1E7003B18BF012336
:1022400080F82D30EBE700BF2FB1030871B603080B
:10225000CDB2030810B50C4611461A462CB1064BF8
:102260009021064A064831F05BF8C4604068036874
:10227000BDE810409B6818472FB1030845B8030814
:10228000CDB2030808B529B1054B8221054A06489D
:1022900031F046F8C0E90411C0E9063208BD00BFBC
:1022A0002FB1030820BA0308CDB2030890F83D30DF
:1022B00010B5044653B14FF0FF31406C03F07BF989
:1022C000002384F83D30012384F83E3010BD000027
:1022D0002DE9F0410D460446194635B9154B40F23B
:1022E0000131154A154831F01BF8C0E91052003A87
:1022F0000368134E18BF0122D3F89030327098470C
:10230000E569A5B12B681F68337873B1236820464F
:102310005B6B9847236C834207D1616C094B28465D
:102320001A883B46BDE8F0411847216CF6E7BDE846
:10233000F08100BFDCBB030814BC0308ECB0030849
:10234000A8BE0224ACBE022410B50446104629B132
:10235000134BD021134A144830F0E2FF94F829308F
:1023600033B1124B1B6893F86F20636913446361A8
:1023700094F82B300BB9012010BDA36803630368E8
:102380005B699847002394F82C0084F82B300028D0
:10239000F1D194F82D30002BEED184F82900EBE731
:1023A0002FB1030862BC0308CDB20308B4BE0224F7
:1023B00070B51A4C054612F099FF94F8293013B9FC
:1023C00094F82A30ABB1E169D4E90532534322696C
:1023D0004A4393420DD394F83C0038B19B1AB3FBA7
:1023E000F1F2994298BF02F1FF326262012384F850
:1023F0002E300123206C84F83D3003F094F994F8DA
:102400003E302BB1606C03F0F9F8002384F83E30C5
:1024100068680368BDE870401B6918478C82002417
:10242000034690F87E0018B1586803681B68184787
:1024300070470000084B4FF08062C3F88820BFF35C
:102440004F8FBFF36F8F4FF08072C3F88820BFF3B8
:102450004F8FBFF36F8F704700E100E0034B4FF0E9
:1024600080629A604FF080729A60704700E100E0ED
:10247000034690F8280070B5C8B901229D6BD8605A
:102480009A624FF4807205F5162418619A85586196
:102490009861D8611862586283F82E00D3E90C263F
:1024A000324494420AD90B4B52210B4A03E00B4BA6
:1024B00040F2C5110A4A0B4830F032FF9D609C6320
:1024C0004FF4207381F83400CB864FF4F073086327
:1024D0000B8770BDBABF0308F5BF030803BE03082E
:1024E00033BE0308CDB2030838B5184C23685BB37C
:1024F000174B184A1B6C11888B4216D1164B0025BE
:10250000198805F065F8236893F86E2083F88050E9
:10251000013283F86E2000F071FB206813F0BAFCE2
:102520002846BDE8384001F0BEB905F051F82468EE
:10253000236820461B6A98470123002084F88030D6
:10254000BDE8384001F0B0B938BD00BFB4BE0224C8
:10255000001000508A820024888200242DE9F7436D
:10256000044601264FF4A0674FF0FF31206C03F0C2
:10257000AEF84FF0FF31606C03F01DF894F82E3088
:1025800043B36568D4F820802B6884F82B60B8F1D9
:10259000000F23D05B6A41462846984700232362F8
:1025A0002B684FF4207200972846D3F814804FF41C
:1025B000F073A168C047236984F82C0001332361BC
:1025C000F0B12B6828469B6A984701380023E060E9
:1025D00084F82E30606C03F011F8C5E7626A002AB7
:1025E000DED02846D3E909939847616A014428461A
:1025F000C8472369626AC4F8248013442361CFE783
:102600000120E3E7014808B5FFF7A8FF8C8200240A
:1026100038B51448002500F0BFFC134C134B2A4674
:102620002946012023604FF48073A563A387A38507
:1026300084F83E5084F82E50C4E90C55C4E9105576
:10264000C4E90155C4E90355C4E90555C4E9075572
:10265000C4E9095502F0F1FF2064284602F076FF34
:10266000606438BDD48200248C820024B8CA030878
:1026700003685B6C18470120704740F2EF307047E9
:10268000104B07B5D3F8D42005215A2042F0100290
:10269000C3F8D420D3F8D42002F010020192019A9A
:1026A000DA6F42F01002DA67DA6F22F01002DA67AE
:1026B000002204F063F85A2003B05DF804EB04F044
:1026C0008FB800BF0044025810B504464FF0FF31E8
:1026D000D0F8A40D02F06FFF606803681B6898478C
:1026E00078B9637A6BB1237A5BB984F8A03D204650
:1026F00023685B6A9847D4F8A40DBDE8104002F047
:102700007DBF0B490B4A0B681B01D35C012BF2D137
:10271000207A0028EFD1A07A0028ECD1086884F84C
:10272000A03D02EB0010237201F038F8E3E700BF90
:10273000DC9B00240C000024054B4FF080620360FA
:10274000044BC3F88820BFF34F8FBFF36F8F7047E0
:10275000FCCA030800E100E010B5044640F6A851A9
:10276000FFF7EAFF204629F063F8204610BD00007D
:1027700008B50A2809D8DFE800F006100E08080896
:10278000081010101000022008BD054B8D21054ACD
:10279000054830F0C5FD0020F6E70120F4E700BF52
:1027A00098C10308B3C10308FEC1030838B50C463D
:1027B000887FFFF7DDFF174BA58AE28A586342EA5C
:1027C000054221695A64628BD963521B1A642568D9
:1027D000082D0ED19A611A6158620F4A207F42EA91
:1027E0000062DA61E2681A620C4A5961D9601A60C3
:1027F00038BD0022D8611A61E1680A0A4809C1F3AC
:10280000C40102F4784200F4FC6002430A439A6374
:10281000034AECE700100052090001000123020006
:102820000123030008B50B280BD8DFE800F00612DF
:10283000100A0A0A0A0808080808022008BD05202C
:10284000FCE7054B6C21054A054830F069FD002086
:10285000F4E70120F2E700BF98C1030829C203088A
:10286000FEC103082DE9F04191F81D800C46404659
:10287000FFF7D8FFA77F05463846FFF7D3FF064688
:102880003846FFF775FFA18A628B434B521A1A64D0
:102890009A61228B521A1A61E28A586342EA014213
:1028A00021695A646268D963DA602068802828D078
:1028B000227F0FD8202866D0402864D004281AD060
:1028C00045EA0265344BB84545F40035DD6160D01A
:1028D000324A44E0B0F5807F04D0B0F5007FEFD1FC
:1028E0002F4800E02F4840EA0262DA61E2681A628B
:1028F0005E62596132E045EA026242F40032DA6116
:10290000F6E7A068021DDA62227F45EA026545F417
:102910000035DD615E625961017841B1012921D044
:10292000214B40F21711214A214830F0F9FCDA69B5
:10293000418822F47F42013922F0100242EA01224A
:102940000121DA61144BDA6942F02002DA61DA69B6
:102950009206FCD410229A600029B9D0154A1A6058
:10296000BDE8F081B2F1FF01DA69408822F47F42CC
:1029700018BF0121013822F0100242EA002242F081
:102980001002DA61DEE745EA0262034B42F40032EC
:10299000B5E742F20132E2E70010005201230100E4
:1029A000090002000A00020073C203088DC2030876
:1029B000FEC103080123020090F8A03D10B50446B3
:1029C000D3B903689B6A984719491A4A0B681B01D7
:1029D000D35C012B2AD11848006838BB207A28BB69
:1029E000A07A18BB086884F8A03D237202EB00109F
:1029F000BDE8104000F0D2BE037A43B10023037259
:102A00000B4B18680B4B03EB001000F001FF6068E4
:102A100003681B68984748B9637A3BB1236884F818
:102A2000A00D20465B6ABDE81040184710BD00BFEE
:102A3000DC9B00240C000024D89B0024094B5A681E
:102A400091070ED51A6892050BD51A6822F4007208
:102A50001A6002229A60044B1B68586803685B691D
:102A60001847704700100052B4BE022470B50446E7
:102A70000E4B0C300026254660226060267266727E
:102A800045F8203B294613F043FB04F55A63EE60FA
:102A900024359D42FBD184F8A06D0020C4F8A46DBC
:102AA00002F054FDC4F8A40D204670BDFCCA030812
:102AB000034B1A68D207FCD423229A60704700BFE8
:102AC000001000520B4A5369DB0311D500290FDDBA
:102AD00000F01F031944BFF34F8F0144C2F868028E
:102AE00020300B1A002BF9DCBFF34F8FBFF36F8F31
:102AF000704700BF00ED00E030B50F4C2568ED07D2
:102B0000FCD423251204FF2BA56042F001024FF0F4
:102B1000020565636264E063E16008D01B0643F070
:102B20000213E361054B65626061236030BD044BB5
:102B3000E3610123F9E700BF001000520100020029
:102B4000020002FF30B50B4C2568ED07FCD42325AD
:102B500012041B06A56042F00102022543F4003373
:102B600065636264E063E160E361034B6562606139
:102B7000236030BD0010005201000200012100223C
:102B800008B5084602F059FD0A4B186028B90A4BEF
:102B900028210A4A0A4830F0C3FB00220421012000
:102BA00002F0EAFD074B186018B9074B2C21034AC5
:102BB000F0E708BD20830024CBC2030814C3030838
:102BC00043C303081C83002470C30308024B4FF067
:102BD000FF31186802F07BBD20830024014B186888
:102BE00002F0A1BD20830024024B0021186802F0EE
:102BF0006EBD00BF20830024FFF7F0BF0023034811
:102C000003491A46006802F0F2BD00BF1C8300248D
:102C10000400002413B50023074C01A91A462068BC
:102C200002F016FE4FF0FF33002201A9206802F0E7
:102C30000FFE02B010BD00BF1C83002401207047AE
:102C40000C2070470C2303FB0100083070470C2355
:102C500003FB010008307047012070474FF4036008
:102C600070474FF4036303FB0100083070474FF4D3
:102C7000036303FB010008307047012070471020F8
:102C8000704700EB01100830704700EB011008306E
:102C900070470846FEF7E6BE034B10B504460360D6
:102CA00010F0E6FE204610BDB4CB030810B5044674
:102CB000FFF7F2FF1421204628F0BAFD204610BD90
:102CC000034B10B50446036010F0D2FE204610BD41
:102CD00080CB030810B50446FFF7F2FF40F6380139
:102CE000204628F0A5FD204610BD0000034B10B57E
:102CF0000446036010F0BCFE204610BD4CCB030818
:102D000010B50446FFF7F2FF1821204628F090FD89
:102D1000204610BD084B10B50446036000F6640061
:102D2000FFF7BAFF04F12C00FFF7CAFF04F114000B
:102D3000FFF7DCFF204610BDE8CB030808B50248CA
:102D4000FFF7E8FF08BD00BFEC91002410B5044672
:102D5000FFF7E0FF40F6D811204628F069FD204635
:102D600010BD00002DE9F341FEF7EEFF00240546FB
:102D7000FEF7EEFF234601462246284600941AF04D
:102D800033FA254B254A2046254D1A60FFF76CF88B
:102D900024481AF08FF92B68BFF35B8FDB0735D41B
:102DA000284628F047FD88B31F4C204B04F67C06CC
:102DB00004F1140004F12C0804F664072360606039
:102DC000C4F80880E760266110F054FE184B4046B6
:102DD000636110F04FFE174B3846E36210F04AFE75
:102DE000154B04F67800C4F86438FEF7C7F822469D
:102DF00004F678013046FEF701F93046FEF732FE60
:102E00000E4830F0ADFA284628F030FD0C4802B0EC
:102E1000BDE8F04100F021BD08BF0224AC830024CE
:102E2000E891002408000024EC910024E8CB03087A
:102E30004CCB030880CB0308B4CB03083D2D00081E
:102E40002483002470470000014812F070BA00BFCC
:102E50002483002470B5254E254B264C3046264D44
:102E60002360FFF703FE28461FF046FC234B002299
:102E70004FF4807122481A639A8683F85C209A6620
:102E800083F874209A67DC60C3E913121D49C3E913
:102E90001B121D49C3E91F011C491D48C3F88410BA
:102EA0001C49C3E90422C3E90622C3E90822C3E995
:102EB0000A22C3E90F22C3E91122C3E91522C3E99B
:102EC0001822C3E901650B604FF4A06183F8382034
:102ED0000180114801804FF448711048018010486A
:102EE000018010490A70104A1A6070BD3C840024A9
:102EF0002CCD0308E4910024B08300242483002413
:102F000000000101010000010004C800420014009B
:102F1000B0BE0224B4BE0224ACBE0224AEBE022463
:102F2000AABE0224A6BE022440CC03080148FFF733
:102F300003BC00BF3C8400244069704790F8400007
:102F40007047036B23B9C06A003818BF012070476F
:102F500001207047806870477047043010B50C46F8
:102F60000FC884E80F0010BD7047000008B5034A81
:102F70004FF4E471024B034830F0D2F9B2C30308B6
:102F800071AE03080DC4030810B50446482128F0AB
:102F90004FFC204610BD000000220E4B10B511461C
:102FA00004460360C26380F84020C0E90522C0E9FE
:102FB0000722C0E90922C0E90B22C0E90D22C0E9BD
:102FC0000322C0E90122012002F037FB024B186006
:102FD000204610BDFCCB0308E09B002410B40C4637
:102FE00011461A46036B3BB1C36B406BE41A204495
:102FF0005DF8044B32F0B4BDC06AF8E7036B10B55E
:1030000073B1C36B426BC91A5318525C98785C78E1
:10301000000440EA04201043DB7840EA036010BD5E
:10302000C26A5318525C59789878000440EA01202B
:10303000F1E7036B43B1C36BC91A436B5A18585C71
:10304000527840EA02207047C36A5A18585C537895
:1030500040EA03207047000070B50446006B0D463F
:103060001646D8B1A36B934208D209230D4AA0217A
:103070000D4884F840300D4B30F052F90368DB689E
:103080009847206B3246616B03681B69984710B9FB
:103090000D2384F84030606BE56370BDE06A08443E
:1030A000FBE700BF57C403080DC4030844C403086A
:1030B0002DE9F843436904462BB9224BE621224A05
:1030C000224830F02DF908228169FFF7C5FFA16978
:1030D00043F2300646F2643704312046FFF78EFF94
:1030E000A3691844A36A00F108029A4206D3012397
:1030F00000206361236AA361BDE8F883636900F17E
:10310000090108222046013321F001016361A16118
:10311000FFF7A2FFD4F8189020464946FFF789FF31
:1031200009F1020180462046FFF783FF09F10401FF
:1031300005462046FFF762FFB045D1D1BD42CFD151
:103140000120D9E799C40308E2C403080DC40308A9
:103150000129036838BF0121DB6A70B50D460446BA
:103160009847A84204D223682046DB6A9847054660
:103170006B1EE6691022204606EB031606F10801D5
:10318000FFF76AFF06F110012046FFF737FF236AB9
:10319000043B0344C4E9055370BD000000214822EC
:1031A0002DE9F0410446816180F84010FFF754FF9B
:1031B000A6690423634A31462046FFF70FFF48B152
:1031C0000323614A4FF4977184F840305F4B6048A5
:1031D00030F0A6F806F1080104235E4A2046A161FA
:1031E000FFF7FCFE38B10423574A4FF49B7184F873
:1031F0004030594BEBE706F10C010423574A2046B7
:10320000A161FFF7EBFE074638B105234E4A40F2B5
:103210003D1184F84030524BD9E706F110012046A9
:10322000FFF7ECFE054620B94E4B40F24311464AEB
:10323000CDE706F1140804234B4A20464146FFF728
:10324000CDFE002849D0062384F840300423474AA5
:1032500006F118012046FFF7C1FE00283FD00723E2
:1032600084F840304544424F0C2220462946FFF75F
:10327000F3FE05F1080604233A4620463146FFF7DF
:10328000ADFE94F84030002848D0002B48D1A36A06
:10329000AB4249D805F10C0304352046A361294609
:1032A000FFF7ACFE3044294660622046FFF7A6FED9
:1032B0000644042220463146FFF7CEFE04232D4A61
:1032C00031462046FFF78AFE002838D10123E66107
:1032D0006361A3692362BDE8F0810127B6E7002F8F
:1032E000C0D006F120012046FFF788FE4FF47A7324
:1032F00006F13001B0FBF3F060602046FFF77EFE80
:1033000006F14001A0602046FFF778FE06F1440177
:10331000E0602046FFF772FE2061A3E7002BB9D0E2
:103320000A2384F84030D6E7291D2046FFF766FEC1
:1033300085190C2220462946FFF78EFE99E70B23BC
:10334000EFE700BF15C5030833C503081AC5030816
:103350000DC4030860C5030865C503087DC50308DF
:1033600082C5030898C50308A4C50308A9C50308B6
:10337000AEC50308B3C50308C0E90A2100220263F1
:10338000FFF70CBF10B5002304460846E3620B6844
:1033900021639B689847A0622046BDE81040FFF774
:1033A000FDBE000037B5134B0024134D1C60134BBA
:1033B0001C60134B2C601C60124B1960124B1A607E
:1033C000124B1C60124B2A684FF4C0751C701C74A1
:1033D000C3E90244C3E9064403EB02130D4AD26871
:1033E0006A4300924FF450425B680AF0FBFC2046AF
:1033F00003B030BDF89B0024E89B0024DC9B002434
:10340000089C0024009C0024049C0024E49B0024CD
:103410000C000024C49B00244B68012B15D1CB6801
:103420001A071EBF23F00F031033CB608B681807F9
:103430001EBF23F00F0310338B60CB688A681B0913
:10344000120953430E4A13607047022B0ED1CB680A
:103450001A0703D023F00F031033CB608B685A0791
:103460001EBF23F0070308338B607047002BFCD18D
:10347000CB685807F2D023F007030833EDE700BF0D
:10348000F09B00240B4A13680B4430B413600A4AC3
:10349000126893420CD2094CD21A2568B2F5504FEB
:1034A000294428BF4FF45042216030BC0AF0FCBCD4
:1034B00030BC7047089C0024049C0024009C00241D
:1034C000F8B5204C0121204D064623681F4F1B01F3
:1034D000E954236805EB03139A601D4B19682268B1
:1034E00005EB0212D1601A68F9680A441A60236871
:1034F000013323602368012B01D900232360236853
:103500001B01EB5C33B1022130460AF09FFC114BEA
:1035100001221A6022683046FB6805EB02154FF461
:10352000C07269685A430AF0C2FC0B4B1B681A7AD6
:103530003AB99B7A2BB9094B1868BDE8F84002F0FC
:10354000F2B8F8BDE89B00240C000024C49B0024C2
:10355000E49B0024F89B0024EC9B0024E09B0024C7
:1035600072B6FEE7014B01221A607047FC9B0024F3
:1035700038B5164D04462B6813B1154B1B681BBBA1
:10358000144B1868037A63B9134B144A1B681B0168
:10359000D35C012B05D10E4B1B6813B903681B6963
:1035A00098470F4A1368012B0CD10E4B0B491B682F
:1035B0001B01CB5C33B92B6823B902212046136071
:1035C0000AF0A1FE022038BD0120FCE7FC9B00248C
:1035D000D89B0024EC9B0024DC9B00240C000024DE
:1035E000F89B0024E89B002470B50546002A37D0DC
:1035F000002B35D01B4802240461EC6826074FF4E9
:10360000A06618BF24F00F04466018BF1034046091
:103610002409C4602C6914F00F0418BFC4F110040D
:1036200084601148114C03601148FFF7BBFE6A6CBF
:10363000104B0F4D1A602846FFF79AFF2060236851
:10364000022B05D10C4B4FF0FF31186802F03FF808
:103650002368012BEFD10023084A1360084A136046
:1036600070BD00BFC49B00240C9C0024F49B00246C
:10367000B4B00224EC9B0024E09B0024FC9B0024BB
:10368000D89B00242DE9F04F9946436985B0044644
:103690000F4690462BB9294BB221294A29482FF0D1
:1036A0003FFE08228169FFF7D7FCA6692046314614
:1036B000FFF7BFFCB11C83462046FFF7BAFC311D63
:1036C00082462046FFF79AFC06F10801A36A0546E8
:1036D0000A189A4226D243F230039B4517D146F28C
:1036E00064339A4513D190B10246A1612046FFF799
:1036F000B3FC0E9B01462A462046CDF80080CDE95A
:1037000001933B46FFF770FF636901336361A3696F
:103710002B4405B908330133626A23F00103934255
:10372000A36109D1012301206361236AA36180F0B1
:10373000010005B0BDE8F08F0020F8E799C4030848
:10374000B8C503080DC40308F8B5044681691646D8
:103750000822FFF781FCA7692046391DFFF74EFCC0
:1037600007F10801024605462046FFF775FC0146B1
:103770006EB12A46074C084D33460748FFF712FE44
:103780002846FFF7F5FE20602368002BF8D00120C3
:10379000F8BD00BFF49B0024B4B00224F0B5C768A4
:1037A0000222154C3901154E2368B1FBF3F1636811
:1037B0005943134B5A630901E26836681505B61A76
:1037C000B74215D3A468C4F110042C435C640D4CBB
:1037D000C2F12802246812012144D9631A6400222C
:1037E0001A61094ADA614268DA60084A1A60F0BD73
:1037F00045F010055D64EAE7C49B0024F09B0024BB
:10380000001000520C9C00240B0009FF0123010052
:103810000C4B00220270196882600131196019682E
:10382000012900D91A60084B084A1B68D2689B1A04
:10383000C2689A4202D3064B01221A60054B1868EF
:1038400001F071BFDC9B0024F09B0024C49B00248A
:10385000D89B0024E09B0024704710B50446FEF777
:10386000B5FB022384F86C3010BDFEF791BBFEF768
:1038700095BBFEF7ECBBFEF7ECBBFEF765BBFEF7B6
:10388000EDBDFEF7D7BDFEF769BBFEF7C7BBFEF780
:103890008FBD11F0E2BC10B50446882127F0C8FFA7
:1038A000204610BD70477047704770477047000052
:1038B00010B5124C01228021204603F04DFA6420FD
:1038C00002F008FB00228021204603F045FA642024
:1038D00002F000FB01228021204603F03DFA4FF464
:1038E0007A7002F0F7FA09200022072102F046FF61
:1038F0000920BDE8104002F073BF00BF0018025855
:1039000070B588B010260D46144604AB324600212F
:10391000184632F06BF81A4A117811B9002008B035
:1039200070BD00210123117064220090822115488E
:10393000CDE90162324603F0B1FB0028EED19DF9DA
:1039400011309DF81120002BE8DA9DF810000128B5
:10395000E4D102F03F029DF812309DF8131043EAC3
:103960000223094A01F03F01084E13609DF814201C
:1039700042EA012232602B6033682360CFE700BF48
:10398000189C002488AF0224149C0024109C00245E
:1039900010B50446042127F04BFF204610BD00005F
:1039A000082802D1014B01221A707047189C00248C
:1039B000704708B5FFF746FABDE80840FFF7D2B9EF
:1039C000FFF742BA00F108034FF0FF324360036192
:1039D000C0E902230023036070470023036170479E
:1039E00043689A684B608A60516099600368086117
:1039F00001330360704730B50C68631C0AD103695A
:103A00005A684A6091608B605960036808610133AD
:103A1000036030BD00F10802134652681568A542E4
:103A2000FAD9EDE70369D0E901128A60516059685B
:103A3000814208BF5A60002202611A68013A1A6086
:103A40001868704710B5044602F0C4F8A46B02F081
:103A5000E1F8B4FA84F0400910BD70B51646026C66
:103A60000446856B42B906689EB9806801F048FA41
:103A7000A6600135A56370BD6EB94068FCF7E0FD36
:103A80006368226C1344A2689342636024BF236876
:103A900063600020EDE7C068FCF7D2FD226CE368AC
:103AA00051429B1A22689342E3603EBFA3685B18B1
:103AB000E360022EEDD10DB1013DEAE72846D8E7DB
:103AC000034608461A6C10B462B1DC689968144465
:103AD0008C42DC605DF8044B24BF1968D960D9685A
:103AE000FCF7AEBD5DF8044B704770B5044602F0BC
:103AF00071F894F8455004F124066DB2002D01DDF3
:103B0000636AB3B9FF2304F1100684F8453002F06C
:103B100081F802F05FF894F844506DB2002D01DD99
:103B200023697BB9FF2384F84430BDE8704002F07C
:103B300071B8304601F000F908B101F087F9013D94
:103B40006DB2DBE7304601F0F7F808B101F07EF91D
:103B5000013D6DB2E2E738B50D46044640B94FF07D
:103B6000500383F31188BFF36F8FBFF34F8FFEE7CE
:103B700002F030F82268D4E90F3162604B43D0186C
:103B80005B1AA0601A440020FF23E260A06384F85F
:103B9000443084F84530A5B9236973B104F11000AD
:103BA00001F0CAF848B14FF0E0234FF08052C3F85B
:103BB000042DBFF34F8FBFF36F8F02F02BF801205E
:103BC00038BD04F11000FFF7FDFE04F12400FFF7FB
:103BD000F9FEF2E737B50D461C4640B94FF05003E9
:103BE00083F31188BFF36F8FBFF34F8FFEE743B9A5
:103BF0004FF0500383F31188BFF36F8FBFF34F8FE4
:103C0000FEE74AB191B94FF0500383F31188BFF337
:103C10006F8FBFF34F8FFEE741B14FF0500383F337
:103C20001188BFF36F8FBFF34F8FFEE750230193CF
:103C3000019B502B08D04FF0500383F31188BFF342
:103C40006F8FBFF34F8FFEE70121002D08BF224683
:103C5000019B84F846102260C4E90F052046FFF757
:103C60007AFF9DF81830204684F84C3003B030BD00
:103C7000F8B50D461746064640B94FF0500383F39A
:103C80001188BFF36F8FBFF34F8FFEE7484350306B
:103C900001F064FE044670B1002380F8463065B13F
:103CA00000F15003012120462360C4E90F65FFF7AE
:103CB00052FF84F84C702046F8BD0346F2E713B576
:103CC00013460C4640B94FF0500383F31188BFF3FD
:103CD0006F8FBFF34F8FFEE7884208D24FF050033B
:103CE00083F31188BFF36F8FBFF34F8FFEE702227C
:103CF000009200221146FFF76DFF00B1846302B00D
:103D000010BD10B50C4640B94FF0500383F3118835
:103D1000BFF36F8FBFF34F8FFEE7884208D24FF09B
:103D2000500383F31188BFF36F8FBFF34F8FFEE70C
:103D300002220021FFF79CFF00B1846310BD2DE932
:103D4000FF410F461E460446019240B94FF0500312
:103D500083F31188BFF36F8FBFF34F8FFEE751B925
:103D6000036C43B14FF0500383F31188BFF36F8F9F
:103D7000BFF34F8FFEE7022E0BD1E36B012B08D070
:103D80004FF0500383F31188BFF36F8FBFF34F8F52
:103D9000FEE701F067F8054620B300254FF0000864
:103DA00001F018FFA26BE36B9A4227D232463946E4
:103DB0002046FFF752FE636A1BB104F1240000F0B5
:103DC000BBFF48B14FF0E0234FF08052C3F8042D01
:103DD000BFF34F8FBFF36F8F01F01CFF012004B0C2
:103DE000BDE8F081019B002BD8D04FF0500383F346
:103DF0001188BFF36F8FBFF34F8FFEE7022ED5D030
:103E0000019B1BB901F006FF0020E8E715B902A8E5
:103E100000F0D4FF01F0FEFE00F0C6FD01F0DAFE76
:103E200094F84430FF2B01D184F8448094F8453055
:103E3000FF2B01D184F8458001F0ECFE01A902A816
:103E400000F0C8FF38BB01F0C5FEA26BE36B9A42DD
:103E50000ED101F0DFFE019904F1100000F034FFF3
:103E60002046FFF742FE00F04BFE48B1012597E7E0
:103E700001F0D0FE2046FFF738FE00F041FEF5E7E6
:103E80004FF0E0234FF08052C3F8042DBFF34F8F63
:103E9000BFF36F8FEAE72046FFF727FE00F030FE02
:103EA000B2E700220B4613B5114600900120FFF740
:103EB00091FE044638B100231A4619468360036018
:103EC000C360FFF73CFF204602B010BD38B5044682
:103ED00040B94FF0500383F31188BFF36F8FBFF3E6
:103EE0004F8FFEE7856800F0B7FF85420BD1E3688E
:103EF000013BE3600BB1012038BD1A46194620464C
:103F0000FFF71DFFF7E70020F6E770B506465020E3
:103F100001F024FD044698B100250121006080F8DD
:103F20004650C0E90F15FFF716FE2B462A462946D4
:103F3000204684F84C60A5602560E560FFF7FFFE31
:103F4000204670BD2DE9F843894617461E460446B3
:103F500040B94FF0500383F31188BFF36F8FBFF365
:103F60004F8FFEE751B9036C43B14FF0500383F319
:103F70001188BFF36F8FBFF34F8FFEE7022E0BD177
:103F8000E36B012B08D04FF0500383F31188BFF38C
:103F90006F8FBFF34F8FFEE701F02EFFEFF3118815
:103FA0004FF0500383F31188BFF36F8FBFF34F8F30
:103FB000A26BE36B9A4201D3022E1ED194F84550B6
:103FC0003246494620466DB2A36BFFF746FD6B1C97
:103FD0000ED1636A3BB104F1240000F0ADFE10B1D4
:103FE0000FB101233B60012088F31188BDE8F883FD
:103FF00001356DB284F84550F5E70020F4E770B55F
:104000000D46044640B94FF0500383F31188BFF3C7
:104010006F8FBFF34F8FFEE7036C43B14FF0500338
:1040200083F31188BFF36F8FBFF34F8FFEE70368F1
:1040300053B9836843B14FF0500383F31188BFF342
:104040006F8FBFF34F8FFEE701F0D6FEEFF31186BF
:104050004FF0500383F31188BFF36F8FBFF34F8F7F
:10406000A26BE36B934219D994F845100132FF29F2
:104070004BB2A2630DD1636A3BB104F1240000F09E
:104080005BFE10B10DB101232B60012086F3118876
:1040900070BD01335BB284F84530F6E70020F5E7E8
:1040A0002DE9FF410E460446019240B94FF05003FE
:1040B00083F31188BFF36F8FBFF34F8FFEE751B9C2
:1040C000036C43B14FF0500383F31188BFF36F8F3C
:1040D000BFF34F8FFEE700F0C5FE054618B300257D
:1040E0004FF0000801F076FDA76B47B3013F314662
:1040F0002046FFF7E5FCA763236973B104F11000C4
:1041000000F01AFE48B14FF0E0234FF08052C3F8A0
:10411000042DBFF34F8FBFF36F8F01F07BFD0120A4
:1041200004B0BDE8F081019B002BD9D04FF05003C3
:1041300083F31188BFF36F8FBFF34F8FFEE7019BAF
:104140001BB901F067FD0020EAE715B902A800F0ED
:1041500035FE01F05FFD00F027FC01F03BFD94F817
:104160004430FF2B01D184F8448094F84530FF2B74
:1041700001D184F8458001F04DFD01A902A800F0AD
:1041800029FE00BB2046FFF75DFCB0B1019904F1A8
:10419000240000F099FD2046FFF7A7FC00F0B0FCDA
:1041A00048B94FF0E0234FF08052C3F8042DBFF31D
:1041B0004F8FBFF36F8F012594E72046FFF795FCE3
:1041C00000F09EFCF7E72046FFF78FFC00F098FC1C
:1041D0002046FFF737FC0028EDD0B4E7F0B585B0F6
:1041E0000446019140B94FF0500383F31188BFF3A7
:1041F0006F8FBFF34F8FFEE7056C45B14FF0500353
:1042000083F31188BFF36F8FBFF34F8FFEE700F08A
:1042100029FE064620B32E46002701F0DBFCA36BE7
:1042200053B3013BA363236813B900F0F9FEA06008
:10423000236973B104F1100000F07EFD48B14FF026
:10424000E0234FF08052C3F8042DBFF34F8FBFF32C
:104250006F8F01F0DFFC012005B0F0BD3546DBE7D4
:10426000019B002BFAD04FF0500383F31188BFF36A
:104270006F8FBFF34F8FFEE7019B53B9002D66D0C0
:104280004FF0500383F31188BFF36F8FBFF34F8F4D
:10429000FEE716B902A800F091FD01F0BBFC00F0AA
:1042A00083FB01F097FC94F84430FF2B01D184F894
:1042B000447094F84530FF2B01D184F8457001F02B
:1042C000A9FC01A902A800F085FD50BB2046FFF71C
:1042D000B9FB00B323683BB901F07CFCA06800F097
:1042E000D1FD054601F096FC019904F1240000F08F
:1042F000EBFC2046FFF7F9FB00F002FC48B94FF059
:10430000E0234FF08052C3F8042DBFF34F8FBFF36B
:104310006F8F012681E72046FFF7E7FB00F0F0FBF7
:10432000F7E72046FFF7E1FB00F0EAFB2046FFF746
:1043300089FB0028EDD065B101F04CFC616A19B130
:10434000236B1968C1F13801A06800F01BFE01F071
:1043500061FC002080E770B50D46044640B94FF07F
:10436000500383F31188BFF36F8FBFF34F8FFEE7C6
:10437000866800F071FD864204D1E36801200133B4
:10438000E36070BD29462046FFF728FF0028F8D0DB
:10439000E3680133E360F4E72DE9F843894690468A
:1043A000044640B94FF0500383F31188BFF36F8F79
:1043B000BFF34F8FFEE751B9036C43B14FF0500389
:1043C00083F31188BFF36F8FBFF34F8FFEE701F0C8
:1043D00013FDEFF311874FF0500383F31188BFF300
:1043E0006F8FBFF34F8FA56B0DB394F844604946B0
:1043F0002046013D76B2FFF763FBA563731C11D124
:10440000236953B104F1100000F096FC28B1B8F113
:10441000000F02D00123C8F80030012087F3118873
:10442000BDE8F883013676B284F84460F5E72846A3
:10443000F4E710B5044640B94FF0500383F31188F8
:10444000BFF36F8FBFF34F8FFEE701F0C3FBA36B8A
:10445000E46BE41A01F0DEFB204610BD0023074A9E
:1044600030B552F8335002EBC3041DB942F8331093
:10447000606030BD0133082BF3D1FAE71C9C0024A7
:104480000023094A10B552F83310DC00814206D1EE
:10449000064A002142F833102244516010BD013316
:1044A000082BF0D1FAE700BF209C00241C9C0024BC
:1044B00010B540B94FF0500383F31188BFF36F8FED
:1044C000BFF34F8FFEE7FFF7DBFF90F846301BB9D5
:1044D000BDE8104001F0DABA10BD70B504460D46D3
:1044E000164601F077FB94F84430FF2B02D10023ED
:1044F00084F8443094F84530FF2B02D1002384F82F
:10450000453001F087FBA36B2BB93246294604F1F5
:10451000240000F0F3FB2046BDE87040FFF7E5BA49
:104520002DE9F041044601F055FB2F4B2F4E1A6840
:104530002F4F01321A603568002D4AD134601B6854
:10454000012B1FD1B84601354046FFF73BFA08F171
:104550001408382DF7D1DFF8C080264D4046FFF70C
:1045600031FA2846FFF72EFA2348FFF72BFA2348A3
:10457000FFF728FA2248FFF725FA224BC3F80080FC
:10458000214B1D60214A136801331360204A636484
:104590001168E36A8B4200D913601420211D00FBCF
:1045A0000370FFF71DFA01F035FB1A4B1B6873B15E
:1045B0003368DA6AE36A9A4209D24FF0E0234FF097
:1045C0008052C3F8042DBFF34F8FBFF36F8FBDE848
:1045D000F081104B1A68E36A002AD3D13268D26A9C
:1045E0009A42CFD83460CDE7809C002454A10024A7
:1045F000F49C0024CC9C0024B09C00249C9C0024AF
:10460000849C0024C89C0024C49C0024649C002436
:10461000789C0024749C0024E09C0024F8B5154B81
:104620000646154D0F461C6828680430FFF7FAF956
:10463000731C07D137B1296810480431BDE8F84030
:10464000FFF7CEB9A4192B685C6007D30C4B186830
:104650002968BDE8F8400431FFF7CDB9094B186867
:1046600029680431FFF7C7F9074B1A68A24200D93D
:104670001C60F8BD7C9C002454A10024849C002470
:10468000C49C0024C89C0024609C0024064A136833
:104690001968064B19B94FF0FF321A60704712685B
:1046A000D268D2685268F8E7C89C0024609C002455
:1046B00010B50446583031F015FB94F89D313BB9E4
:1046C000206B01F0E3F92046BDE8104001F0DEB9AF
:1046D000012BF8D0022B08D04FF0500383F3118840
:1046E000BFF36F8FBFF34F8FFEE710BD80B5144C43
:1046F000144F154D236883B9144B1B68012B09D93E
:104700004FF0E0234FF08052C3F8042DBFF34F8FDA
:10471000BFF36F8F0BF0D7FDEBE701F05BFAFB689F
:10472000DE68301DFFF77EF92B68013B2B602368A4
:10473000013B236001F06EFA3046FFF7B9FFD9E77D
:10474000989C00249C9C0024809C0024F49C0024C1
:104750002DE9F047960007460D46A52132469846BA
:10476000043EDDE90994206B31F040F9236B1E44CF
:1047700026F00706002D52D06B1E04F133020F35D0
:1047800013F8011F02F8011F09B1AB42F8D1002351
:1047900084F84330089D4FF0000A201D372DC4F8DF
:1047A00050A028BF3725E562E564C5F13805FFF75D
:1047B00014F904F11800FFF710F94FF4A0725146F4
:1047C000C4F898A104F158002461A5616462C4F89A
:1047D00054A084F89CA131F009F9124B39463046B7
:1047E00003F16802E365D033226601226366002389
:1047F000C4E93C230C4A0D4BC4E93E230C4B424612
:10480000C4F800310B23A4F8043101F0BBF9206097
:10481000B9F1000F01D0C9F80040BDE8F08784F875
:104820003450B7E754C902240E33CDAB34126DE6D1
:10483000ECDE050070B586B0DDE90B5445B94FF0EC
:10484000500383F31188BFF36F8FBFF34F8FFEE7E1
:1048500044B94FF0500383F31188BFF36F8FBFF358
:104860004F8FFEE74FF4D0760596059EB6F5D07FC4
:1048700008D04FF0500383F31188BFF36F8FBFF35D
:104880004F8FFEE725630225059E84F89D5104ADF8
:10489000029401950A9D0095FFF75AFF2046FFF705
:1048A0003FFE049806B070BD2DE9F043074685B081
:1048B000900088461646994601F050F8054620B902
:1048C0004FF0FF3005B0BDE8F0834FF4D07001F039
:1048D00045F8044698B1002305633246414680F806
:1048E0009D310D9B0290384601930C9B00934B46E3
:1048F000FFF72EFF2046FFF713FE0120E2E72846D0
:1049000001F0C4F8DCE7000010B588B0002407AA65
:1049100006A905A8CDE9054400F0E2FF059B079A2A
:104920000293069B19491A48CDE900432346FFF735
:1049300081FF40B300F0D2FB012819D14FF05003A2
:1049400083F31188BFF36F8FBFF34F8F114B124A60
:104950001B68583313604FF0FF32104B1A60104B36
:104960001860104B1C6008B0BDE8104001F0C2B9DF
:10497000013008D14FF0500383F31188BFF36F8FDC
:10498000BFF34F8FFEE708B010BD00BF13C603088A
:10499000ED46000854A1002470060024609C002409
:1049A000749C00247C9C0024024A13680133136029
:1049B000704700BF5C9C0024014B1868704700BF23
:1049C0007C9C002408B501F017FA014B186808BD5B
:1049D0007C9C00243F4B1B682DE9F74F002B72D1C4
:1049E0003D4B1C6801341C60BCB93C4B1A68126812
:1049F00042B14FF0500383F31188BFF36F8FBFF3C1
:104A00004F8FFEE7364A1968106818601160354A02
:104A1000136801331360FFF739FE334D4FF0000B7D
:104A2000324E2B68324F9C4212D23A681421D26A1D
:104A30004A43B258022A2F4A126828BF4FF0010B8E
:104A4000002A18BF4FF0010B584603B0BDE8F08FA5
:104A5000DFF88890DFF8A4A0D9F8002012681AB90E
:104A60004FF0FF322A60E0E7D9F80020D268D2F890
:104A70000C80D8F804108C4201D22960D5E708F1E7
:104A8000040318460193FEF7CDFFD8F8281019B19A
:104A900008F11800FEF7C6FFD8F82C00DAF800106D
:104AA000884201D9CAF800001423019903FB006071
:104AB000FEF796FF3868D8F82C10C26A914228BFDA
:104AC0004FF0010BC8E70C4A4FF0000B136801339D
:104AD0001360B9E75C9C00247C9C0024C89C0024E3
:104AE000C49C0024689C0024609C0024F49C002446
:104AF00054A100246C9C0024709C0024789C002409
:104B00002DE9F041304C236843B94FF0500383F353
:104B10001188BFF36F8FBFF34F8FFEE701F05AF894
:104B20002368013B236024682CB1002401F072F853
:104B30002046BDE8F081254B1B68002BF5D0244DA5
:104B4000244EDFF8A0801DE0EB68DC68271D04F12F
:104B50001800FEF767FF3846FEF764FFE36A326825
:104B6000934200D933601420394600FB0380FEF7DE
:104B700037FF194BE26A1B68DB6A9A4202D3174B74
:104B800001221A602B68002BDED10CB1FFF77EFDED
:104B9000134D2C6844B1114E0127FFF71BFF00B1E4
:104BA0003760013CF9D12C600C4B1B68002BBCD04A
:104BB0004FF0E0234FF08052C3F8042DBFF34F8F26
:104BC000BFF36F8F0124B1E75C9C0024809C00241C
:104BD000B09C0024789C002454A100246C9C0024E8
:104BE000709C0024F49C002408B550B94FF0E023D9
:104BF0004FF08052C3F8042DBFF34F8FBFF36F8F78
:104C000008BD0A4B196841B14FF0500383F3118876
:104C1000BFF36F8FBFF34F8FFEE7FFF7C5FEFFF7C0
:104C2000FDFCFFF76DFF0028E0D0E9E75C9C002465
:104C3000F8B51F4B1A681F4B12B101221A60F8BD5C
:104C40001D4C1A602268236812681B6B9A4204D8B4
:104C50002068216834310BF037FB184E14271849AF
:104C6000326807FB02F3CD58C818A5B14568083370
:104C70006D680B449D42456004BF6B68436014231C
:104C800003FB02114B68DB682360326023680D4A26
:104C900058331360D3E742B94FF0500383F31188C0
:104CA000BFF36F8FBFF34F8FFEE7013AD9E700BF25
:104CB0005C9C00246C9C002454A10024789C00245B
:104CC000F49C00247006002410B50C4640B94FF047
:104CD000500383F31188BFF36F8FBFF34F8FFEE74D
:104CE000054B19681831FEF786FE20460121BDE804
:104CF0001040FFF793BC00BF54A1002438B50D4607
:104D0000144640B94FF0500383F31188BFF36F8FFF
:104D1000BFF34F8FFEE7074B19681831FEF760FEAF
:104D2000002C21460CBF28464FF0FF30BDE838402C
:104D3000FFF774BC54A1002438B5C368DC6844B9DB
:104D40004FF0500383F31188BFF36F8FBFF34F8F82
:104D5000FEE704F118052846FEF764FE114B1B68B8
:104D6000D3B9251D2846FEF75DFE0F4AE36A116898
:104D70008B4200D9136014200C4A294600FB032003
:104D8000FEF72EFE0A4BE26A1B68DB6A9A4206D9DE
:104D90000120084B186038BD29460748F0E700207D
:104DA000F9E700BF5C9C0024789C0024F49C00245C
:104DB00054A100246C9C0024B09C0024034B1B686D
:104DC0000360034B1B684360704700BF689C00246E
:104DD0007C9C002470B50C46054640B94FF050034A
:104DE00083F31188BFF36F8FBFF34F8FFEE741B995
:104DF0004FF0500383F31188BFF36F8FBFF34F8FD2
:104E0000FEE700F0E7FE0F4B196823685A1C10D02C
:104E10000D482E6800686A68864201D08A420FD920
:104E2000881A83420AD95B1A284613442360FFF785
:104E3000C5FF002400F0EEFE204670BD0023236075
:104E40000124F7E77C9C0024689C0024014B01228C
:104E50001A6070476C9C0024014B1868704700BFB3
:104E600054A10024054B1B6833B1054B1868B0FAF8
:104E700080F040094000704701207047749C002476
:104E80005C9C0024F8B5044638B31A4DC36A2A68FE
:104E9000D26A934226D28269002A04DB2A68D26A47
:104EA000C2F1380282611422134E02FB036362696D
:104EB0009A4213D1271D3846FEF7B4FD2B680F4ADE
:104EC000DB6A1168E3628B4200D913601420394613
:104ED00000FB0360FEF784FD0120F8BD2B68DB6A50
:104EE000E362F9E72B68C06CDB6A98422CBF0020B4
:104EF0000120F2E754A10024F49C0024789C0024B3
:104F000038B508B9002038BD1B4B1C68844208D056
:104F10004FF0500383F31188BFF36F8FBFF34F8FB0
:104F2000FEE7236D43B94FF0500383F31188BFF3BD
:104F30006F8FBFF34F8FFEE7E16A013BE26C2365A1
:104F40009142DFD0002BDDD1251D2846FEF76AFDFA
:104F5000E36CC3F13802E362A261084A11688B4234
:104F600000D91360064A1420294600FB0320FEF7EF
:104F700037FD0120C7E700BF54A10024789C00241E
:104F8000F49C002470B50446002842D0026D42B95A
:104F90004FF0500383F31188BFF36F8FBFF34F8F30
:104FA000FEE7C36C994238BF1946C36A8B4230D0C2
:104FB000012A2ED1174A1268824208D14FF05003BD
:104FC00083F31188BFF36F8FBFF34F8FFEE78269C2
:104FD000114D002A4FF01402C16202FB0353A8BF17
:104FE000C1F138014269A8BF81619A4211D1061D01
:104FF0003046FEF717FD094AE36A11688B4200D973
:1050000013601420314600FB0350BDE87040FEF7EA
:10501000E7BC70BD54A10024F49C0024789C0024BB
:10502000044B1A681AB119680A6D01320A651868CA
:10503000704700BF54A10024914208B5416000614F
:105040000AD8D21A83699A420DD2011D074B1868FB
:10505000FEF7D1FC002008BD9A4201D2994202D24B
:10506000011D034BF3E70120F5E700BF54A2002424
:1050700058A20024F7B5114C00F0ACFD2568BDB96D
:105080000F4F104E3846FEF79DFC3046FEF79AFC57
:105090000D4B0E4A10211F600A200D4B1E600D4B58
:1050A0000095FEF797FD206010B10B49FFF7D6F988
:1050B00003B0BDE8F04000F0ADBD00BF50A2002439
:1050C00070A200245CA2002458A20024A8A10024FD
:1050D00054A2002458A1002418C6030810B588B0B3
:1050E000FFF7C8FF124B1B68B3B1002407AA06A93B
:1050F00005A8CDE9054400F0FFFB059B079A029344
:10510000069B0C49019302230B4800932346FFF7AB
:1051100091FB0A4B186040B94FF0500383F311889C
:10512000BFF36F8FBFF34F8FFEE7012008B010BDB4
:1051300050A200241DC60308395200084CA20024C6
:105140007FB5164604461A4640B94FF0500383F324
:105150001188BFF36F8FBFF34F8FFEE70C4D2868A8
:1051600078B105290294CDE900160CDCFFF77AFE30
:1051700000230228694628680CBF089A1A46FEF7E1
:10518000DEFD04B070BD00236946FEF7DBFEF8E7E4
:1051900050A200242DE9F347DFF898800646FFF778
:1051A0000BFC0546D8F80030834209D91F4F3B68F5
:1051B0001A686AB91E4A116813600123396000E059
:1051C000002328463360C8F8005002B0BDE8F087DD
:1051D000DB68DC68D3F8009004F1040A5046FEF75F
:1051E00021FC236A2046984794F828305B07DED5D7
:1051F000A3694B44994506D25146386863602461DF
:10520000FEF7F9FBD3E700234A46204619460093F0
:10521000FFF796FF0028CAD14FF0500383F311889F
:10522000BFF36F8FBFF34F8FFEE700BF58A200247C
:1052300054A2002448A200242DE9F0436E4D89B009
:105240006E4E2B68D3F80080B8F1000F35D0DB68C4
:105250000024D3F80080FFF7A7FB04A8FFF79AFF0C
:10526000049B8146002B69D1002C4CD1404550D382
:10527000FFF746FC2B68DB68DF68381DFEF7D2FBC2
:1052800097F8283058071AD5B96943464A46384630
:105290004144FFF7D1FEB0B123464246214638468D
:1052A0000094FFF74DFF70B94FF0500383F311885E
:1052B000BFF36F8FBFF34F8FFEE70124CBE723F0DF
:1052C000010387F828303B6A38469847002204A932
:1052D0003068FEF7E5FE0028B3D0049B0698002B4B
:1052E0002FDB069C6369002B32D103A8FFF752FF26
:1052F000049B0246092BE9D8DFE803F02E2E2E5737
:105300005E762E2E575E3E4B1B681C68B4FA84F402
:1053100064092246A8EB09013068FFF7DEF8FFF7C1
:10532000EFFB0028D2D14FF0E0234FF08052C3F8BA
:10533000042DBFF34F8FBFF36F8FC7E7FFF7E0FB7D
:10534000C4E7059B07999847049B002BBEDBC8E781
:10535000201DFEF767FBC8E794F828302046A169B6
:1053600043F0010384F82830059B1944FFF764FEDD
:105370000028ABD0236A2046984794F82830590774
:10538000A4D5A26900230599204600930A44194632
:10539000FFF7D6FE002899D14FF0500383F3118810
:1053A000BFF36F8FBFF34F8FFEE794F8283023F0E1
:1053B000010384F8283089E794F8283043F001038A
:1053C00084F828300599A16141B94FF0500383F367
:1053D0001188BFF36F8FBFF34F8FFEE70346014481
:1053E0002046FFF729FE71E794F828309A07DED4AB
:1053F000204600F04BFB69E758A2002450A200248D
:1054000054A2002408B54FF0E0231B69FFF72AFDE2
:10541000012803D0BDE8084000F044BC08BD0000EE
:10542000EFF305832BB9064B186828B901221A60DF
:1054300070476FF0050070474FF0FF30704700BFB6
:10544000C8AB002408B5FFF70DFD38B1022804D021
:10545000034B1868431E5842584108BD0320FCE71F
:10546000C8AB002410B5EFF305845CB9084B1A688B
:10547000012A0AD1074AD47702221A60FFF744FAB8
:10548000204610BD6FF00500FBE74FF0FF30F8E756
:10549000C8AB002400ED00E0EFF305830BB1FFF78C
:1054A00091BAFFF789BAF0B5144687B000220B46CF
:1054B0000592EFF30582CAB9C0B16CB3A569002D9E
:1054C00008BF1825691EAC4637292AD86168C90764
:1054D00027D466696EB1B2082168D4E9027E57B15B
:1054E000BEF5D07F02D3246904B1E6B9059807B0B0
:1054F000F0BD8022F0E7BEF1000FF7D12469002C47
:10550000F4D105AC92B2CDE900C4FFF7CDF9012882
:105510001CBF00230593E9E721464FF0180C8022B9
:10552000EFE71046E3E7CDE901470095FFF782F981
:105530000590DBE708B5EFF3058222B908B1FFF764
:1055400053FB002008BD6FF00500FBE770B5054672
:10555000EFF3058616B10024204670BD10B14668F1
:105560003307F8D406F001067DB1D5E9021351B135
:105570004F2BF0D9DEB10420FEF793FC044600283F
:10558000E9D02D680AE0002BE5D196B10420FEF7A2
:10559000BCFC04460028DED0002DF2D1294620466E
:1055A000FEF75CFF002ED7D044F00104D4E70120C1
:1055B000E2E70120EBE738B503460C4620F0010096
:1055C00003F00102EFF3058595B9012B13D962B100
:1055D000FEF7C1FE012801D1002038BD002C14BF08
:1055E0006FF001006FF00200F7E7FEF7F7FDF1E75B
:1055F0006FF00500F1E76FF00300EEE7024620F0E0
:10560000010008B502F00103EFF3058179B9012A21
:1056100010D93BB1FEF75AFC01280CBF00206FF0F7
:10562000020008BD1A461946FEF789FBF4E76FF041
:105630000500F6E76FF00300F3E7F7B504460E4602
:105640001546EFF3058242B938B1884205D355B10A
:10565000D5E902372BB14F2F22D80024204603B0C2
:10566000F0BD002FF9D1012C0CD020463146FEF7B9
:1056700048FB04460028F0D085B929462046FEF7AD
:10568000EDFEEBE7032200210120FEF7F1FA0EE028
:105690001A46FEF714FB04460028DED02D68ECE71E
:1056A0000128F5D1032100911146FEF793FA044633
:1056B0000028D2D0002EDFD000231A461946FEF76C
:1056C0003EFB0128D8D02046FEF7F2FEC5E713B511
:1056D0000C4628B3EFF30583CBB109BB01AA0191B6
:1056E000FEF75AFE012803D06FF0020002B010BD91
:1056F000019B0BB90020F9E74FF0E0234FF08052F7
:10570000C3F8042DBFF34F8FBFF36F8FF2E7FEF79F
:1057100065FD0128EED0002CE6D06FF00100E5E732
:105720006FF00300E2E707B518B3EFF30583CBB1E1
:10573000002301A90193FEF762FC012804D06FF059
:10574000020003B05DF804FB019B4BB14FF0E02376
:105750004FF08052C3F8042DBFF34F8FBFF36F8F0C
:105760000020EEE71A461946FEF7E9FA0128F7D0BD
:10577000E5E76FF00300E4E7F7B505460E4614468B
:10578000EFF305871FB10025284603B0F0BD0028C0
:10579000F9D00029F7D0DAB1D2E9023283B14F2A29
:1057A000F1D92269002AEED04D436669AE42EAD3B0
:1057B0000097FEF70FFA05460028E4D0246811E0B0
:1057C000002AE0D12369002BDDD16369002BDAD1F7
:1057D000284600223146FEF74BFA05460028D2D073
:1057E000002CEBD121462846FEF738FECCE773B5F6
:1057F0001C46EFF30586DEB138B331B32BBB01AAEB
:105800000193FEF79FFB012803D06FF0020002B066
:1058100070BD019B0BB90020F9E74FF0E0234FF07A
:105820008052C3F8042DBFF34F8FBFF36F8FF2E7A1
:1058300058B151B133462246FEF781FA0128EAD029
:10584000002CE2D06FF00100E1E76FF00300DEE72B
:1058500037B51C46EFF30583DBB130B329B324BB66
:1058600001AA0194FEF798FD012803D06FF0020011
:1058700003B030BD019B0BB90020F9E74FF0E023E6
:105880004FF08052C3F8042DBFF34F8FBFF36F8FDB
:10589000F2E750B149B12246FEF702FC0128EBD0F5
:1058A000002CE3D06FF00100E2E76FF00300DFE7C8
:1058B000A0B1EFF305827AB1EFF311824FF05001FE
:1058C00081F31188BFF36F8FBFF34F8FD0E90E01C3
:1058D000081A82F311887047FEF7ABBD70470000CD
:1058E000034B0360034B0B6080231360704700BFC2
:1058F00028AA002428A80024034B0360034B0B6054
:105900004FF480731360704788A6002484A200249B
:10591000104B10B51A461B688342FBD3546811190B
:10592000884201BF41681046091951604468011955
:105930008B420CD1084909688B4203D05968214435
:10594000416019689042016018BF106010BD19468F
:10595000F8E700BFE4AB0024E0AB00242DE9F04100
:105960000446FFF721F84249424D0B680BBB424AFF
:105970005607424E1BBFD01D02F500324FF40033D4
:1059800020F007001CBF131A0246002013443260A7
:105990007060083B23F00703C3E90000981A0B600E
:1059A000C2E90030364B1860364B18604FF00043A8
:1059B0002B602E68264255D1002C46D004F10803F6
:1059C00060071CBF23F007030833002B4AD02D4F7C
:1059D0003C689C4246D3294A15686868984204D2BC
:1059E000D5F800C0BCF1000F15D10968A94239D023
:1059F0002968D2F800801160C21A102A12D9E8185A
:105A000041070BD04FF0500383F31188BFF36F8F22
:105A1000BFF34F8FFEE72A466546DEE742606B60C4
:105A2000FFF776FF6A6800231549A41A1643086831
:105A3000154A84422B6013683C6003F1010338BFB0
:105A40000C6008F108046E601360FFF759F86307F3
:105A50000AD04FF0500383F31188BFF36F8FBFF369
:105A60004F8FFEE70024F0E72046BDE8F08100BF3D
:105A7000E0AB0024CCAB0024ECAB0024E4AB00246E
:105A8000D8AB0024DCAB0024D4AB002410B5044612
:105A900090B31A4A50F8043C1268134208D14FF0F0
:105AA000500383F31188BFF36F8FBFF34F8FFEE76F
:105AB00050F8081C41B14FF0500383F31188BFF335
:105AC0006F8FBFF34F8FFEE723EA020340F8043CD9
:105AD000FEF76AFF0A4A54F8043CA4F10800116872
:105AE0000B441360FFF714FF064A13680133BDE847
:105AF00010401360FFF704B810BD00BFCCAB00240A
